{
  "contractName": "CoWorkingSpace",
  "abi": [
    {
      "constant": true,
      "inputs": [
        {
          "internalType": "uint256",
          "name": "",
          "type": "uint256"
        }
      ],
      "name": "bookings",
      "outputs": [
        {
          "internalType": "address",
          "name": "user",
          "type": "address"
        },
        {
          "internalType": "uint256",
          "name": "date",
          "type": "uint256"
        }
      ],
      "payable": false,
      "stateMutability": "view",
      "type": "function"
    },
    {
      "constant": false,
      "inputs": [
        {
          "internalType": "uint256",
          "name": "_roomId",
          "type": "uint256"
        },
        {
          "internalType": "uint256",
          "name": "_date",
          "type": "uint256"
        }
      ],
      "name": "bookRoom",
      "outputs": [],
      "payable": false,
      "stateMutability": "nonpayable",
      "type": "function"
    },
    {
      "constant": true,
      "inputs": [
        {
          "internalType": "uint256",
          "name": "_roomId",
          "type": "uint256"
        }
      ],
      "name": "getBooking",
      "outputs": [
        {
          "internalType": "address",
          "name": "",
          "type": "address"
        },
        {
          "internalType": "uint256",
          "name": "",
          "type": "uint256"
        }
      ],
      "payable": false,
      "stateMutability": "view",
      "type": "function"
    }
  ],
  "bytecode": "0x608060405234801561001057600080fd5b5061036e806100206000396000f3fe608060405234801561001057600080fd5b50600436106100415760003560e01c80631dab301e146100465780636a5c841a146100bb5780638a3a1a1814610130575b600080fd5b6100726004803603602081101561005c57600080fd5b8101908080359060200190929190505050610168565b604051808373ffffffffffffffffffffffffffffffffffffffff1673ffffffffffffffffffffffffffffffffffffffff1681526020018281526020019250505060405180910390f35b6100e7600480360360208110156100d157600080fd5b81019080803590602001909291905050506101ac565b604051808373ffffffffffffffffffffffffffffffffffffffff1673ffffffffffffffffffffffffffffffffffffffff1681526020018281526020019250505060405180910390f35b6101666004803603604081101561014657600080fd5b810190808035906020019092919080359060200190929190505050610204565b005b60006020528060005260406000206000915090508060000160009054906101000a900473ffffffffffffffffffffffffffffffffffffffff16908060010154905082565b60008060008084815260200190815260200160002060000160009054906101000a900473ffffffffffffffffffffffffffffffffffffffff166000808581526020019081526020016000206001015491509150915091565b80600080848152602001908152602001600020600101541415610272576040517f08c379a00000000000000000000000000000000000000000000000000000000081526004018080602001828103825260328152602001806103086032913960400191505060405180910390fd5b60405180604001604052803373ffffffffffffffffffffffffffffffffffffffff1681526020018281525060008084815260200190815260200160002060008201518160000160006101000a81548173ffffffffffffffffffffffffffffffffffffffff021916908373ffffffffffffffffffffffffffffffffffffffff16021790555060208201518160010155905050505056fe5468697320726f6f6d20697320616c726561647920626f6f6b656420666f72207468652073656c656374656420646174652ea265627a7a723158200a32c571bc6bebfeca65d73e6664cc6ed5f4c6e8f170c1e661807ad0ce6098c364736f6c63430005100032",
  "source": "pragma solidity ^0.5.16;\n\ncontract CoWorkingSpace {\n    struct Booking {\n        address user;\n        uint256 date;\n    }\n\n    mapping(uint256 => Booking) public bookings;\n\n    function bookRoom(uint256 _roomId, uint256 _date) public {\n        require(bookings[_roomId].date != _date, \"This room is already booked for the selected date.\");\n\n        bookings[_roomId] = Booking(msg.sender, _date);\n    }\n\n    function getBooking(uint256 _roomId) public view returns (address, uint256) {\n        return (bookings[_roomId].user, bookings[_roomId].date);\n    }\n}\n",
  "sourcePath": "/home/moiz/co-working-space/contracts/CoWorkingSpace.sol",
  "compiler": {
    "name": "solc",
    "version": "0.5.16+commit.9c3226ce.Emscripten.clang"
  },
  "schemaVersion": "3.4.16",
  "updatedAt": "2024-04-27T21:16:31.862Z",
  "networkType": "ethereum",
  "devdoc": {
    "methods": {}
  },
  "userdoc": {
    "methods": {}
  }
}